{
  "contractName": "BBearsVREMarketplace",
  "abi": [
    {
      "inputs": [
        {
          "internalType": "string",
          "name": "baseURI",
          "type": "string"
        }
      ],
      "stateMutability": "nonpayable",
      "type": "constructor"
    },
    {
      "anonymous": false,
      "inputs": [
        {
          "indexed": true,
          "internalType": "uint256",
          "name": "tokenId",
          "type": "uint256"
        },
        {
          "indexed": false,
          "internalType": "uint256",
          "name": "timestamp",
          "type": "uint256"
        },
        {
          "indexed": false,
          "internalType": "uint256",
          "name": "predictionValue",
          "type": "uint256"
        }
      ],
      "name": "AIPredictionAdded",
      "type": "event"
    },
    {
      "anonymous": false,
      "inputs": [
        {
          "indexed": true,
          "internalType": "address",
          "name": "owner",
          "type": "address"
        },
        {
          "indexed": true,
          "internalType": "address",
          "name": "approved",
          "type": "address"
        },
        {
          "indexed": true,
          "internalType": "uint256",
          "name": "tokenId",
          "type": "uint256"
        }
      ],
      "name": "Approval",
      "type": "event"
    },
    {
      "anonymous": false,
      "inputs": [
        {
          "indexed": true,
          "internalType": "address",
          "name": "owner",
          "type": "address"
        },
        {
          "indexed": true,
          "internalType": "address",
          "name": "operator",
          "type": "address"
        },
        {
          "indexed": false,
          "internalType": "bool",
          "name": "approved",
          "type": "bool"
        }
      ],
      "name": "ApprovalForAll",
      "type": "event"
    },
    {
      "anonymous": false,
      "inputs": [
        {
          "indexed": true,
          "internalType": "uint256",
          "name": "tokenId",
          "type": "uint256"
        },
        {
          "indexed": false,
          "internalType": "uint256",
          "name": "price",
          "type": "uint256"
        }
      ],
      "name": "NFTListed",
      "type": "event"
    },
    {
      "anonymous": false,
      "inputs": [
        {
          "indexed": true,
          "internalType": "uint256",
          "name": "tokenId",
          "type": "uint256"
        },
        {
          "indexed": false,
          "internalType": "string",
          "name": "energyType",
          "type": "string"
        },
        {
          "indexed": false,
          "internalType": "uint256",
          "name": "productionDate",
          "type": "uint256"
        }
      ],
      "name": "NFTMinted",
      "type": "event"
    },
    {
      "anonymous": false,
      "inputs": [
        {
          "indexed": true,
          "internalType": "uint256",
          "name": "tokenId",
          "type": "uint256"
        },
        {
          "indexed": false,
          "internalType": "address",
          "name": "buyer",
          "type": "address"
        },
        {
          "indexed": false,
          "internalType": "address",
          "name": "seller",
          "type": "address"
        },
        {
          "indexed": false,
          "internalType": "uint256",
          "name": "price",
          "type": "uint256"
        }
      ],
      "name": "NFTPurchased",
      "type": "event"
    },
    {
      "anonymous": false,
      "inputs": [
        {
          "indexed": true,
          "internalType": "bytes32",
          "name": "role",
          "type": "bytes32"
        },
        {
          "indexed": true,
          "internalType": "bytes32",
          "name": "previousAdminRole",
          "type": "bytes32"
        },
        {
          "indexed": true,
          "internalType": "bytes32",
          "name": "newAdminRole",
          "type": "bytes32"
        }
      ],
      "name": "RoleAdminChanged",
      "type": "event"
    },
    {
      "anonymous": false,
      "inputs": [
        {
          "indexed": true,
          "internalType": "bytes32",
          "name": "role",
          "type": "bytes32"
        },
        {
          "indexed": true,
          "internalType": "address",
          "name": "account",
          "type": "address"
        },
        {
          "indexed": true,
          "internalType": "address",
          "name": "sender",
          "type": "address"
        }
      ],
      "name": "RoleGranted",
      "type": "event"
    },
    {
      "anonymous": false,
      "inputs": [
        {
          "indexed": true,
          "internalType": "bytes32",
          "name": "role",
          "type": "bytes32"
        },
        {
          "indexed": true,
          "internalType": "address",
          "name": "account",
          "type": "address"
        },
        {
          "indexed": true,
          "internalType": "address",
          "name": "sender",
          "type": "address"
        }
      ],
      "name": "RoleRevoked",
      "type": "event"
    },
    {
      "anonymous": false,
      "inputs": [
        {
          "indexed": false,
          "internalType": "address",
          "name": "payer",
          "type": "address"
        },
        {
          "indexed": false,
          "internalType": "uint256",
          "name": "tokenId",
          "type": "uint256"
        },
        {
          "indexed": false,
          "internalType": "uint256",
          "name": "amount",
          "type": "uint256"
        }
      ],
      "name": "TaxPaid",
      "type": "event"
    },
    {
      "anonymous": false,
      "inputs": [
        {
          "indexed": true,
          "internalType": "address",
          "name": "from",
          "type": "address"
        },
        {
          "indexed": true,
          "internalType": "address",
          "name": "to",
          "type": "address"
        },
        {
          "indexed": true,
          "internalType": "uint256",
          "name": "tokenId",
          "type": "uint256"
        }
      ],
      "name": "Transfer",
      "type": "event"
    },
    {
      "anonymous": false,
      "inputs": [
        {
          "indexed": false,
          "internalType": "address",
          "name": "user",
          "type": "address"
        },
        {
          "indexed": false,
          "internalType": "uint256",
          "name": "amount",
          "type": "uint256"
        }
      ],
      "name": "WithdrawnFromVault",
      "type": "event"
    },
    {
      "inputs": [],
      "name": "ADMIN_ROLE",
      "outputs": [
        {
          "internalType": "bytes32",
          "name": "",
          "type": "bytes32"
        }
      ],
      "stateMutability": "view",
      "type": "function"
    },
    {
      "inputs": [],
      "name": "DEFAULT_ADMIN_ROLE",
      "outputs": [
        {
          "internalType": "bytes32",
          "name": "",
          "type": "bytes32"
        }
      ],
      "stateMutability": "view",
      "type": "function"
    },
    {
      "inputs": [],
      "name": "PRODUCER_ROLE",
      "outputs": [
        {
          "internalType": "bytes32",
          "name": "",
          "type": "bytes32"
        }
      ],
      "stateMutability": "view",
      "type": "function"
    },
    {
      "inputs": [
        {
          "internalType": "uint256",
          "name": "",
          "type": "uint256"
        }
      ],
      "name": "aiPredictions",
      "outputs": [
        {
          "internalType": "uint256",
          "name": "tokenId",
          "type": "uint256"
        },
        {
          "internalType": "uint256",
          "name": "timestamp",
          "type": "uint256"
        },
        {
          "internalType": "uint256",
          "name": "predictionValue",
          "type": "uint256"
        }
      ],
      "stateMutability": "view",
      "type": "function"
    },
    {
      "inputs": [
        {
          "internalType": "address",
          "name": "to",
          "type": "address"
        },
        {
          "internalType": "uint256",
          "name": "tokenId",
          "type": "uint256"
        }
      ],
      "name": "approve",
      "outputs": [],
      "stateMutability": "nonpayable",
      "type": "function"
    },
    {
      "inputs": [
        {
          "internalType": "address",
          "name": "owner",
          "type": "address"
        }
      ],
      "name": "balanceOf",
      "outputs": [
        {
          "internalType": "uint256",
          "name": "",
          "type": "uint256"
        }
      ],
      "stateMutability": "view",
      "type": "function"
    },
    {
      "inputs": [
        {
          "internalType": "uint256",
          "name": "tokenId",
          "type": "uint256"
        }
      ],
      "name": "getApproved",
      "outputs": [
        {
          "internalType": "address",
          "name": "",
          "type": "address"
        }
      ],
      "stateMutability": "view",
      "type": "function"
    },
    {
      "inputs": [
        {
          "internalType": "bytes32",
          "name": "role",
          "type": "bytes32"
        }
      ],
      "name": "getRoleAdmin",
      "outputs": [
        {
          "internalType": "bytes32",
          "name": "",
          "type": "bytes32"
        }
      ],
      "stateMutability": "view",
      "type": "function"
    },
    {
      "inputs": [
        {
          "internalType": "bytes32",
          "name": "role",
          "type": "bytes32"
        },
        {
          "internalType": "address",
          "name": "account",
          "type": "address"
        }
      ],
      "name": "grantRole",
      "outputs": [],
      "stateMutability": "nonpayable",
      "type": "function"
    },
    {
      "inputs": [
        {
          "internalType": "bytes32",
          "name": "role",
          "type": "bytes32"
        },
        {
          "internalType": "address",
          "name": "account",
          "type": "address"
        }
      ],
      "name": "hasRole",
      "outputs": [
        {
          "internalType": "bool",
          "name": "",
          "type": "bool"
        }
      ],
      "stateMutability": "view",
      "type": "function"
    },
    {
      "inputs": [
        {
          "internalType": "address",
          "name": "owner",
          "type": "address"
        },
        {
          "internalType": "address",
          "name": "operator",
          "type": "address"
        }
      ],
      "name": "isApprovedForAll",
      "outputs": [
        {
          "internalType": "bool",
          "name": "",
          "type": "bool"
        }
      ],
      "stateMutability": "view",
      "type": "function"
    },
    {
      "inputs": [],
      "name": "name",
      "outputs": [
        {
          "internalType": "string",
          "name": "",
          "type": "string"
        }
      ],
      "stateMutability": "view",
      "type": "function"
    },
    {
      "inputs": [
        {
          "internalType": "uint256",
          "name": "tokenId",
          "type": "uint256"
        }
      ],
      "name": "ownerOf",
      "outputs": [
        {
          "internalType": "address",
          "name": "",
          "type": "address"
        }
      ],
      "stateMutability": "view",
      "type": "function"
    },
    {
      "inputs": [
        {
          "internalType": "uint256",
          "name": "",
          "type": "uint256"
        }
      ],
      "name": "renewableEnergyNFTs",
      "outputs": [
        {
          "internalType": "string",
          "name": "energyType",
          "type": "string"
        },
        {
          "internalType": "uint256",
          "name": "productionDate",
          "type": "uint256"
        },
        {
          "internalType": "uint256",
          "name": "carbonEmissions",
          "type": "uint256"
        },
        {
          "internalType": "uint256",
          "name": "energyEfficiency",
          "type": "uint256"
        },
        {
          "internalType": "uint256",
          "name": "price",
          "type": "uint256"
        },
        {
          "internalType": "bool",
          "name": "isListed",
          "type": "bool"
        }
      ],
      "stateMutability": "view",
      "type": "function"
    },
    {
      "inputs": [
        {
          "internalType": "bytes32",
          "name": "role",
          "type": "bytes32"
        },
        {
          "internalType": "address",
          "name": "account",
          "type": "address"
        }
      ],
      "name": "renounceRole",
      "outputs": [],
      "stateMutability": "nonpayable",
      "type": "function"
    },
    {
      "inputs": [
        {
          "internalType": "bytes32",
          "name": "role",
          "type": "bytes32"
        },
        {
          "internalType": "address",
          "name": "account",
          "type": "address"
        }
      ],
      "name": "revokeRole",
      "outputs": [],
      "stateMutability": "nonpayable",
      "type": "function"
    },
    {
      "inputs": [
        {
          "internalType": "address",
          "name": "from",
          "type": "address"
        },
        {
          "internalType": "address",
          "name": "to",
          "type": "address"
        },
        {
          "internalType": "uint256",
          "name": "tokenId",
          "type": "uint256"
        }
      ],
      "name": "safeTransferFrom",
      "outputs": [],
      "stateMutability": "nonpayable",
      "type": "function"
    },
    {
      "inputs": [
        {
          "internalType": "address",
          "name": "from",
          "type": "address"
        },
        {
          "internalType": "address",
          "name": "to",
          "type": "address"
        },
        {
          "internalType": "uint256",
          "name": "tokenId",
          "type": "uint256"
        },
        {
          "internalType": "bytes",
          "name": "data",
          "type": "bytes"
        }
      ],
      "name": "safeTransferFrom",
      "outputs": [],
      "stateMutability": "nonpayable",
      "type": "function"
    },
    {
      "inputs": [
        {
          "internalType": "address",
          "name": "operator",
          "type": "address"
        },
        {
          "internalType": "bool",
          "name": "approved",
          "type": "bool"
        }
      ],
      "name": "setApprovalForAll",
      "outputs": [],
      "stateMutability": "nonpayable",
      "type": "function"
    },
    {
      "inputs": [],
      "name": "symbol",
      "outputs": [
        {
          "internalType": "string",
          "name": "",
          "type": "string"
        }
      ],
      "stateMutability": "view",
      "type": "function"
    },
    {
      "inputs": [
        {
          "internalType": "uint256",
          "name": "index",
          "type": "uint256"
        }
      ],
      "name": "tokenByIndex",
      "outputs": [
        {
          "internalType": "uint256",
          "name": "",
          "type": "uint256"
        }
      ],
      "stateMutability": "view",
      "type": "function"
    },
    {
      "inputs": [
        {
          "internalType": "address",
          "name": "owner",
          "type": "address"
        },
        {
          "internalType": "uint256",
          "name": "index",
          "type": "uint256"
        }
      ],
      "name": "tokenOfOwnerByIndex",
      "outputs": [
        {
          "internalType": "uint256",
          "name": "",
          "type": "uint256"
        }
      ],
      "stateMutability": "view",
      "type": "function"
    },
    {
      "inputs": [
        {
          "internalType": "uint256",
          "name": "tokenId",
          "type": "uint256"
        }
      ],
      "name": "tokenURI",
      "outputs": [
        {
          "internalType": "string",
          "name": "",
          "type": "string"
        }
      ],
      "stateMutability": "view",
      "type": "function"
    },
    {
      "inputs": [],
      "name": "totalSupply",
      "outputs": [
        {
          "internalType": "uint256",
          "name": "",
          "type": "uint256"
        }
      ],
      "stateMutability": "view",
      "type": "function"
    },
    {
      "inputs": [
        {
          "internalType": "address",
          "name": "from",
          "type": "address"
        },
        {
          "internalType": "address",
          "name": "to",
          "type": "address"
        },
        {
          "internalType": "uint256",
          "name": "tokenId",
          "type": "uint256"
        }
      ],
      "name": "transferFrom",
      "outputs": [],
      "stateMutability": "nonpayable",
      "type": "function"
    },
    {
      "inputs": [
        {
          "internalType": "address",
          "name": "",
          "type": "address"
        }
      ],
      "name": "vaultBalances",
      "outputs": [
        {
          "internalType": "uint128",
          "name": "",
          "type": "uint128"
        }
      ],
      "stateMutability": "view",
      "type": "function"
    },
    {
      "inputs": [
        {
          "internalType": "address",
          "name": "to",
          "type": "address"
        },
        {
          "internalType": "string",
          "name": "energyType",
          "type": "string"
        },
        {
          "internalType": "uint256",
          "name": "productionDate",
          "type": "uint256"
        },
        {
          "internalType": "uint256",
          "name": "carbonEmissions",
          "type": "uint256"
        },
        {
          "internalType": "uint256",
          "name": "energyEfficiency",
          "type": "uint256"
        }
      ],
      "name": "mintNFT",
      "outputs": [],
      "stateMutability": "nonpayable",
      "type": "function"
    },
    {
      "inputs": [
        {
          "internalType": "uint256",
          "name": "tokenId",
          "type": "uint256"
        },
        {
          "internalType": "uint256",
          "name": "timestamp",
          "type": "uint256"
        },
        {
          "internalType": "uint256",
          "name": "predictionValue",
          "type": "uint256"
        }
      ],
      "name": "addAIPrediction",
      "outputs": [],
      "stateMutability": "nonpayable",
      "type": "function"
    },
    {
      "inputs": [
        {
          "internalType": "uint256",
          "name": "tokenId",
          "type": "uint256"
        },
        {
          "internalType": "uint256",
          "name": "amount",
          "type": "uint256"
        }
      ],
      "name": "payTax",
      "outputs": [],
      "stateMutability": "nonpayable",
      "type": "function"
    },
    {
      "inputs": [],
      "name": "depositToVault",
      "outputs": [],
      "stateMutability": "payable",
      "type": "function"
    },
    {
      "inputs": [
        {
          "internalType": "uint256",
          "name": "amount",
          "type": "uint256"
        }
      ],
      "name": "withdrawFromVault",
      "outputs": [],
      "stateMutability": "nonpayable",
      "type": "function"
    },
    {
      "inputs": [
        {
          "internalType": "string",
          "name": "baseURI",
          "type": "string"
        }
      ],
      "name": "setBaseURI",
      "outputs": [],
      "stateMutability": "nonpayable",
      "type": "function"
    },
    {
      "inputs": [
        {
          "internalType": "uint256",
          "name": "tokenId",
          "type": "uint256"
        },
        {
          "internalType": "uint256",
          "name": "price",
          "type": "uint256"
        }
      ],
      "name": "listNFTForSale",
      "outputs": [],
      "stateMutability": "nonpayable",
      "type": "function"
    },
    {
      "inputs": [
        {
          "internalType": "uint256",
          "name": "tokenId",
          "type": "uint256"
        }
      ],
      "name": "purchaseNFT",
      "outputs": [],
      "stateMutability": "payable",
      "type": "function"
    },
    {
      "inputs": [
        {
          "internalType": "bytes4",
          "name": "interfaceId",
          "type": "bytes4"
        }
      ],
      "name": "supportsInterface",
      "outputs": [
        {
          "internalType": "bool",
          "name": "",
          "type": "bool"
        }
      ],
      "stateMutability": "view",
      "type": "function"
    }
  ],
  "bytecode": "0x60806040526040518060400160405280601481526020017f4242656172735652454d61726b6574706c616365000000000000000000000000815250600b90816200004a91906200066d565b506040518060400160405280600581526020017f4242565245000000000000000000000000000000000000000000000000000000815250600c90816200009191906200066d565b503480156200009e575f80fd5b5060405162005a8e38038062005a8e8339818101604052810190620000c49190620008a9565b600b8054620000d3906200046d565b80601f016020809104026020016040519081016040528092919081815260200182805462000101906200046d565b8015620001505780601f10620001265761010080835404028352916020019162000150565b820191905f5260205f20905b8154815290600101906020018083116200013257829003601f168201915b5050505050600c805462000164906200046d565b80601f016020809104026020016040519081016040528092919081815260200182805462000192906200046d565b8015620001e15780601f10620001b757610100808354040283529160200191620001e1565b820191905f5260205f20905b815481529060010190602001808311620001c357829003601f168201915b5050505050815f9081620001f691906200066d565b5080600190816200020891906200066d565b50505080600d90816200021c91906200066d565b50620002315f801b336200029c60201b60201c565b620002637fa49807205ce4d355092ef5a8a18f56e8913cf4a201fbe287825b095693c21775336200029c60201b60201c565b620002957f8eb467f061ca67f42a2d2ca4a346fc9fb645efc0ba75056ee9f71c3a0ccc10a8336200029c60201b60201c565b50620008f8565b620002ae8282620002b260201b60201c565b5050565b620002c482826200039e60201b60201c565b6200039a576001600a5f8481526020019081526020015f205f015f8373ffffffffffffffffffffffffffffffffffffffff1673ffffffffffffffffffffffffffffffffffffffff1681526020019081526020015f205f6101000a81548160ff0219169083151502179055506200033f6200040260201b60201c565b73ffffffffffffffffffffffffffffffffffffffff168173ffffffffffffffffffffffffffffffffffffffff16837f2f8788117e7eff1d82e926ec794901d17c78024a50270940304540a733656f0d60405160405180910390a45b5050565b5f600a5f8481526020019081526020015f205f015f8373ffffffffffffffffffffffffffffffffffffffff1673ffffffffffffffffffffffffffffffffffffffff1681526020019081526020015f205f9054906101000a900460ff16905092915050565b5f33905090565b5f81519050919050565b7f4e487b71000000000000000000000000000000000000000000000000000000005f52604160045260245ffd5b7f4e487b71000000000000000000000000000000000000000000000000000000005f52602260045260245ffd5b5f60028204905060018216806200048557607f821691505b6020821081036200049b576200049a62000440565b5b50919050565b5f819050815f5260205f209050919050565b5f6020601f8301049050919050565b5f82821b905092915050565b5f60088302620004ff7fffffffffffffffffffffffffffffffffffffffffffffffffffffffffffffffff82620004c2565b6200050b8683620004c2565b95508019841693508086168417925050509392505050565b5f819050919050565b5f819050919050565b5f620005556200054f620005498462000523565b6200052c565b62000523565b9050919050565b5f819050919050565b620005708362000535565b620005886200057f826200055c565b848454620004ce565b825550505050565b5f90565b6200059e62000590565b620005ab81848462000565565b505050565b5b81811015620005d257620005c65f8262000594565b600181019050620005b1565b5050565b601f8211156200062157620005eb81620004a1565b620005f684620004b3565b8101602085101562000606578190505b6200061e6200061585620004b3565b830182620005b0565b50505b505050565b5f82821c905092915050565b5f620006435f198460080262000626565b1980831691505092915050565b5f6200065d838362000632565b9150826002028217905092915050565b620006788262000409565b67ffffffffffffffff81111562000694576200069362000413565b5b620006a082546200046d565b620006ad828285620005d6565b5f60209050601f831160018114620006e3575f8415620006ce578287015190505b620006da858262000650565b86555062000749565b601f198416620006f386620004a1565b5f5b828110156200071c57848901518255600182019150602085019450602081019050620006f5565b868310156200073c578489015162000738601f89168262000632565b8355505b6001600288020188555050505b505050505050565b5f604051905090565b5f80fd5b5f80fd5b5f80fd5b5f80fd5b5f601f19601f8301169050919050565b62000785826200076a565b810181811067ffffffffffffffff82111715620007a757620007a662000413565b5b80604052505050565b5f620007bb62000751565b9050620007c982826200077a565b919050565b5f67ffffffffffffffff821115620007eb57620007ea62000413565b5b620007f6826200076a565b9050602081019050919050565b5f5b838110156200082257808201518184015260208101905062000805565b5f8484015250505050565b5f620008436200083d84620007ce565b620007b0565b90508281526020810184848401111562000862576200086162000766565b5b6200086f84828562000803565b509392505050565b5f82601f8301126200088e576200088d62000762565b5b8151620008a08482602086016200082d565b91505092915050565b5f60208284031215620008c157620008c06200075a565b5b5f82015167ffffffffffffffff811115620008e157620008e06200075e565b5b620008ef8482850162000877565b91505092915050565b61518880620009065f395ff3fe608060405260043610610203575f3560e01c806355f804b311610117578063a34e828e1161009f578063c87b56dd1161006e578063c87b56dd14610761578063cb3e1fe71461079d578063d33d4378146107c7578063d547741f14610808578063e985e9c51461083057610203565b8063a34e828e14610697578063afb3e63e146106d5578063b2733b3914610711578063b88d4fde1461073957610203565b806375b238fc116100e657806375b238fc146105b557806391d14854146105df57806395d89b411461061b578063a217fddf14610645578063a22cb4651461066f57610203565b806355f804b3146104ed5780636352211e146105155780636c80ecf31461055157806370a082311461057957610203565b806323b872dd1161019a5780633593c66e116101695780633593c66e1461042f57806336568abe1461045757806342842e0e1461047f5780634444ccae146104a75780634f6ccce7146104b157610203565b806323b872dd14610367578063248a9ca31461038f5780632f2ff15d146103cb5780632f745c59146103f357610203565b8063095ea7b3116101d6578063095ea7b3146102d1578063150bde03146102f957806318160ddd14610315578063199aa32c1461033f57610203565b806301ffc9a71461020757806306fdde0314610243578063076d08151461026d578063081812fc14610295575b5f80fd5b348015610212575f80fd5b5061022d60048036038101906102289190613567565b61086c565b60405161023a91906135ac565b60405180910390f35b34801561024e575f80fd5b5061025761087d565b604051610264919061364f565b60405180910390f35b348015610278575f80fd5b50610293600480360381019061028e91906136a2565b61090c565b005b3480156102a0575f80fd5b506102bb60048036038101906102b691906136a2565b610ad6565b6040516102c8919061370c565b60405180910390f35b3480156102dc575f80fd5b506102f760048036038101906102f2919061374f565b610b18565b005b610313600480360381019061030e91906136a2565b610c2e565b005b348015610320575f80fd5b50610329610e75565b604051610336919061379c565b60405180910390f35b34801561034a575f80fd5b50610365600480360381019061036091906137b5565b610e81565b005b348015610372575f80fd5b5061038d600480360381019061038891906137f3565b610f0d565b005b34801561039a575f80fd5b506103b560048036038101906103b09190613876565b610f6d565b6040516103c291906138b0565b60405180910390f35b3480156103d6575f80fd5b506103f160048036038101906103ec91906138c9565b610f8a565b005b3480156103fe575f80fd5b506104196004803603810190610414919061374f565b610fab565b604051610426919061379c565b60405180910390f35b34801561043a575f80fd5b5061045560048036038101906104509190613a33565b61104b565b005b348015610462575f80fd5b5061047d600480360381019061047891906138c9565b6111bd565b005b34801561048a575f80fd5b506104a560048036038101906104a091906137f3565b611240565b005b6104af61125f565b005b3480156104bc575f80fd5b506104d760048036038101906104d291906136a2565b6112fe565b6040516104e4919061379c565b60405180910390f35b3480156104f8575f80fd5b50610513600480360381019061050e9190613ac6565b61136c565b005b348015610520575f80fd5b5061053b600480360381019061053691906136a2565b6113e8565b604051610548919061370c565b60405180910390f35b34801561055c575f80fd5b5061057760048036038101906105729190613b0d565b61146c565b005b348015610584575f80fd5b5061059f600480360381019061059a9190613b5d565b6115bd565b6040516105ac919061379c565b60405180910390f35b3480156105c0575f80fd5b506105c9611671565b6040516105d691906138b0565b60405180910390f35b3480156105ea575f80fd5b50610605600480360381019061060091906138c9565b611695565b60405161061291906135ac565b60405180910390f35b348015610626575f80fd5b5061062f6116f9565b60405161063c919061364f565b60405180910390f35b348015610650575f80fd5b50610659611789565b60405161066691906138b0565b60405180910390f35b34801561067a575f80fd5b5061069560048036038101906106909190613bb2565b61178f565b005b3480156106a2575f80fd5b506106bd60048036038101906106b891906136a2565b6117a5565b6040516106cc93929190613bf0565b60405180910390f35b3480156106e0575f80fd5b506106fb60048036038101906106f69190613b5d565b6117da565b6040516107089190613c4f565b60405180910390f35b34801561071c575f80fd5b50610737600480360381019061073291906137b5565b611806565b005b348015610744575f80fd5b5061075f600480360381019061075a9190613d06565b6119cc565b005b34801561076c575f80fd5b50610787600480360381019061078291906136a2565b611a2e565b604051610794919061364f565b60405180910390f35b3480156107a8575f80fd5b506107b1611a93565b6040516107be91906138b0565b60405180910390f35b3480156107d2575f80fd5b506107ed60048036038101906107e891906136a2565b611ab7565b6040516107ff96959493929190613d86565b60405180910390f35b348015610813575f80fd5b5061082e600480360381019061082991906138c9565b611b90565b005b34801561083b575f80fd5b5061085660048036038101906108519190613dec565b611bb1565b60405161086391906135ac565b60405180910390f35b5f61087682611c3f565b9050919050565b60605f805461088b90613e57565b80601f01602080910402602001604051908101604052809291908181526020018280546108b790613e57565b80156109025780601f106108d957610100808354040283529160200191610902565b820191905f5260205f20905b8154815290600101906020018083116108e557829003601f168201915b5050505050905090565b8060105f3373ffffffffffffffffffffffffffffffffffffffff1673ffffffffffffffffffffffffffffffffffffffff1681526020019081526020015f205f9054906101000a90046fffffffffffffffffffffffffffffffff166fffffffffffffffffffffffffffffffff1610156109b9576040517f08c379a00000000000000000000000000000000000000000000000000000000081526004016109b090613ed1565b60405180910390fd5b8060105f3373ffffffffffffffffffffffffffffffffffffffff1673ffffffffffffffffffffffffffffffffffffffff1681526020019081526020015f205f8282829054906101000a90046fffffffffffffffffffffffffffffffff16610a209190613f1c565b92506101000a8154816fffffffffffffffffffffffffffffffff02191690836fffffffffffffffffffffffffffffffff1602179055503373ffffffffffffffffffffffffffffffffffffffff166108fc8290811502906040515f60405180830381858888f19350505050158015610a99573d5f803e3d5ffd5b507fd4bf7c08d085a114c22cdd06a9fdb35e6cdb4502c918bdc6f1548954e13b21163382604051610acb929190613f5f565b60405180910390a150565b5f610ae082611cb8565b60045f8381526020019081526020015f205f9054906101000a900473ffffffffffffffffffffffffffffffffffffffff169050919050565b5f610b22826113e8565b90508073ffffffffffffffffffffffffffffffffffffffff168373ffffffffffffffffffffffffffffffffffffffff1603610b92576040517f08c379a0000000000000000000000000000000000000000000000000000000008152600401610b8990613ff6565b60405180910390fd5b8073ffffffffffffffffffffffffffffffffffffffff16610bb1611d03565b73ffffffffffffffffffffffffffffffffffffffff161480610be05750610bdf81610bda611d03565b611bb1565b5b610c1f576040517f08c379a0000000000000000000000000000000000000000000000000000000008152600401610c1690614084565b60405180910390fd5b610c298383611d0a565b505050565b610c3781611dc0565b610c76576040517f08c379a0000000000000000000000000000000000000000000000000000000008152600401610c6d906140ec565b60405180910390fd5b600e8181548110610c8a57610c8961410a565b5b905f5260205f2090600602016005015f9054906101000a900460ff16610ce5576040517f08c379a0000000000000000000000000000000000000000000000000000000008152600401610cdc90614181565b60405180910390fd5b600e8181548110610cf957610cf861410a565b5b905f5260205f20906006020160040154341015610d4b576040517f08c379a0000000000000000000000000000000000000000000000000000000008152600401610d42906141e9565b60405180910390fd5b5f610d55826113e8565b90505f3390505f600e8481548110610d7057610d6f61410a565b5b905f5260205f209060060201600401549050610d8d838386611e00565b5f600e8581548110610da257610da161410a565b5b905f5260205f2090600602016005015f6101000a81548160ff0219169083151502179055505f600e8581548110610ddc57610ddb61410a565b5b905f5260205f209060060201600401819055508273ffffffffffffffffffffffffffffffffffffffff166108fc8290811502906040515f60405180830381858888f19350505050158015610e32573d5f803e3d5ffd5b50837fef1fb2bd31f5ed737e6054243d9b5eacd3af967f35af45e8fb844ca6dbbe98f9838584604051610e6793929190614207565b60405180910390a250505050565b5f600880549050905090565b610e8a82611dc0565b610ec9576040517f08c379a0000000000000000000000000000000000000000000000000000000008152600401610ec0906140ec565b60405180910390fd5b5f3390507fb0a068ff9b2c6f72d5af72f3f94b79d10fe7995889678a9c0f6a33caa63cb4d2818484604051610f009392919061423c565b60405180910390a1505050565b610f1e610f18611d03565b826120ec565b610f5d576040517f08c379a0000000000000000000000000000000000000000000000000000000008152600401610f54906142e1565b60405180910390fd5b610f68838383611e00565b505050565b5f600a5f8381526020019081526020015f20600101549050919050565b610f9382610f6d565b610f9c81612180565b610fa68383612194565b505050565b5f610fb5836115bd565b8210610ff6576040517f08c379a0000000000000000000000000000000000000000000000000000000008152600401610fed9061436f565b60405180910390fd5b60065f8473ffffffffffffffffffffffffffffffffffffffff1673ffffffffffffffffffffffffffffffffffffffff1681526020019081526020015f205f8381526020019081526020015f2054905092915050565b6110757f8eb467f061ca67f42a2d2ca4a346fc9fb645efc0ba75056ee9f71c3a0ccc10a833611695565b6110b4576040517f08c379a00000000000000000000000000000000000000000000000000000000081526004016110ab906143fd565b60405180910390fd5b5f600e805490509050600e6040518060c001604052808781526020018681526020018581526020018481526020015f81526020015f1515815250908060018154018082558091505060019003905f5260205f2090600602015f909190919091505f820151815f01908161112791906145b8565b506020820151816001015560408201518160020155606082015181600301556080820151816004015560a0820151816005015f6101000a81548160ff021916908315150217905550505061117b868261226f565b807f4233f6d9830a7c4318a0d56fef7fc6e9a720f4ced725374dbf5a40de3d01f60686866040516111ad929190614687565b60405180910390a2505050505050565b6111c5611d03565b73ffffffffffffffffffffffffffffffffffffffff168173ffffffffffffffffffffffffffffffffffffffff1614611232576040517f08c379a000000000000000000000000000000000000000000000000000000000815260040161122990614725565b60405180910390fd5b61123c828261228c565b5050565b61125a83838360405180602001604052805f8152506119cc565b505050565b3460105f3373ffffffffffffffffffffffffffffffffffffffff1673ffffffffffffffffffffffffffffffffffffffff1681526020019081526020015f205f8282829054906101000a90046fffffffffffffffffffffffffffffffff166112c69190614743565b92506101000a8154816fffffffffffffffffffffffffffffffff02191690836fffffffffffffffffffffffffffffffff160217905550565b5f611307610e75565b8210611348576040517f08c379a000000000000000000000000000000000000000000000000000000000815260040161133f906147f6565b60405180910390fd5b6008828154811061135c5761135b61410a565b5b905f5260205f2001549050919050565b6113967fa49807205ce4d355092ef5a8a18f56e8913cf4a201fbe287825b095693c2177533611695565b6113d5576040517f08c379a00000000000000000000000000000000000000000000000000000000081526004016113cc90614884565b60405180910390fd5b80600d90816113e491906145b8565b5050565b5f806113f383612367565b90505f73ffffffffffffffffffffffffffffffffffffffff168173ffffffffffffffffffffffffffffffffffffffff1603611463576040517f08c379a000000000000000000000000000000000000000000000000000000000815260040161145a906148ec565b60405180910390fd5b80915050919050565b6114967fa49807205ce4d355092ef5a8a18f56e8913cf4a201fbe287825b095693c2177533611695565b6114d5576040517f08c379a00000000000000000000000000000000000000000000000000000000081526004016114cc90614884565b60405180910390fd5b6114de83611dc0565b61151d576040517f08c379a0000000000000000000000000000000000000000000000000000000008152600401611514906140ec565b60405180910390fd5b600f604051806060016040528085815260200184815260200183815250908060018154018082558091505060019003905f5260205f2090600302015f909190919091505f820151815f015560208201518160010155604082015181600201555050827f241a832199c8fd0eb98c5250a48030456fe1e966c4cfe228d2e5ed9c87a7e8f683836040516115b092919061490a565b60405180910390a2505050565b5f8073ffffffffffffffffffffffffffffffffffffffff168273ffffffffffffffffffffffffffffffffffffffff160361162c576040517f08c379a0000000000000000000000000000000000000000000000000000000008152600401611623906149a1565b60405180910390fd5b60035f8373ffffffffffffffffffffffffffffffffffffffff1673ffffffffffffffffffffffffffffffffffffffff1681526020019081526020015f20549050919050565b7fa49807205ce4d355092ef5a8a18f56e8913cf4a201fbe287825b095693c2177581565b5f600a5f8481526020019081526020015f205f015f8373ffffffffffffffffffffffffffffffffffffffff1673ffffffffffffffffffffffffffffffffffffffff1681526020019081526020015f205f9054906101000a900460ff16905092915050565b60606001805461170890613e57565b80601f016020809104026020016040519081016040528092919081815260200182805461173490613e57565b801561177f5780601f106117565761010080835404028352916020019161177f565b820191905f5260205f20905b81548152906001019060200180831161176257829003601f168201915b5050505050905090565b5f801b81565b6117a161179a611d03565b83836123a0565b5050565b600f81815481106117b4575f80fd5b905f5260205f2090600302015f91509050805f0154908060010154908060020154905083565b6010602052805f5260405f205f915054906101000a90046fffffffffffffffffffffffffffffffff1681565b6118307f8eb467f061ca67f42a2d2ca4a346fc9fb645efc0ba75056ee9f71c3a0ccc10a833611695565b61186f576040517f08c379a0000000000000000000000000000000000000000000000000000000008152600401611866906143fd565b60405180910390fd5b61187882611dc0565b6118b7576040517f08c379a00000000000000000000000000000000000000000000000000000000081526004016118ae906140ec565b60405180910390fd5b3373ffffffffffffffffffffffffffffffffffffffff166118d7836113e8565b73ffffffffffffffffffffffffffffffffffffffff161461192d576040517f08c379a000000000000000000000000000000000000000000000000000000000815260040161192490614a2f565b60405180910390fd5b6001600e83815481106119435761194261410a565b5b905f5260205f2090600602016005015f6101000a81548160ff02191690831515021790555080600e838154811061197d5761197c61410a565b5b905f5260205f20906006020160040181905550817fa6cd73580a273eec6c1026108f6b63479fbaef5356dde4ff43e4b38dd187485f826040516119c0919061379c565b60405180910390a25050565b6119dd6119d7611d03565b836120ec565b611a1c576040517f08c379a0000000000000000000000000000000000000000000000000000000008152600401611a13906142e1565b60405180910390fd5b611a2884848484612507565b50505050565b6060611a3982611cb8565b5f611a42612563565b90505f815111611a605760405180602001604052805f815250611a8b565b80611a6a846125f3565b604051602001611a7b929190614a87565b6040516020818303038152906040525b915050919050565b7f8eb467f061ca67f42a2d2ca4a346fc9fb645efc0ba75056ee9f71c3a0ccc10a881565b600e8181548110611ac6575f80fd5b905f5260205f2090600602015f91509050805f018054611ae590613e57565b80601f0160208091040260200160405190810160405280929190818152602001828054611b1190613e57565b8015611b5c5780601f10611b3357610100808354040283529160200191611b5c565b820191905f5260205f20905b815481529060010190602001808311611b3f57829003601f168201915b505050505090806001015490806002015490806003015490806004015490806005015f9054906101000a900460ff16905086565b611b9982610f6d565b611ba281612180565b611bac838361228c565b505050565b5f60055f8473ffffffffffffffffffffffffffffffffffffffff1673ffffffffffffffffffffffffffffffffffffffff1681526020019081526020015f205f8373ffffffffffffffffffffffffffffffffffffffff1673ffffffffffffffffffffffffffffffffffffffff1681526020019081526020015f205f9054906101000a900460ff16905092915050565b5f7f7965db0b000000000000000000000000000000000000000000000000000000007bffffffffffffffffffffffffffffffffffffffffffffffffffffffff1916827bffffffffffffffffffffffffffffffffffffffffffffffffffffffff19161480611cb15750611cb0826126bd565b5b9050919050565b611cc181611dc0565b611d00576040517f08c379a0000000000000000000000000000000000000000000000000000000008152600401611cf7906148ec565b60405180910390fd5b50565b5f33905090565b8160045f8381526020019081526020015f205f6101000a81548173ffffffffffffffffffffffffffffffffffffffff021916908373ffffffffffffffffffffffffffffffffffffffff160217905550808273ffffffffffffffffffffffffffffffffffffffff16611d7a836113e8565b73ffffffffffffffffffffffffffffffffffffffff167f8c5be1e5ebec7d5bd14f71427d1e84f3dd0314c0f7b2291e5b200ac8c7c3b92560405160405180910390a45050565b5f8073ffffffffffffffffffffffffffffffffffffffff16611de183612367565b73ffffffffffffffffffffffffffffffffffffffff1614159050919050565b8273ffffffffffffffffffffffffffffffffffffffff16611e20826113e8565b73ffffffffffffffffffffffffffffffffffffffff1614611e76576040517f08c379a0000000000000000000000000000000000000000000000000000000008152600401611e6d90614b1a565b60405180910390fd5b5f73ffffffffffffffffffffffffffffffffffffffff168273ffffffffffffffffffffffffffffffffffffffff1603611ee4576040517f08c379a0000000000000000000000000000000000000000000000000000000008152600401611edb90614ba8565b60405180910390fd5b611ef18383836001612736565b8273ffffffffffffffffffffffffffffffffffffffff16611f11826113e8565b73ffffffffffffffffffffffffffffffffffffffff1614611f67576040517f08c379a0000000000000000000000000000000000000000000000000000000008152600401611f5e90614b1a565b60405180910390fd5b60045f8281526020019081526020015f205f6101000a81549073ffffffffffffffffffffffffffffffffffffffff0219169055600160035f8573ffffffffffffffffffffffffffffffffffffffff1673ffffffffffffffffffffffffffffffffffffffff1681526020019081526020015f205f8282540392505081905550600160035f8473ffffffffffffffffffffffffffffffffffffffff1673ffffffffffffffffffffffffffffffffffffffff1681526020019081526020015f205f82825401925050819055508160025f8381526020019081526020015f205f6101000a81548173ffffffffffffffffffffffffffffffffffffffff021916908373ffffffffffffffffffffffffffffffffffffffff160217905550808273ffffffffffffffffffffffffffffffffffffffff168473ffffffffffffffffffffffffffffffffffffffff167fddf252ad1be2c89b69c2b068fc378daa952ba7f163c4a11628f55a4df523b3ef60405160405180910390a46120e78383836001612891565b505050565b5f806120f7836113e8565b90508073ffffffffffffffffffffffffffffffffffffffff168473ffffffffffffffffffffffffffffffffffffffff16148061213957506121388185611bb1565b5b8061217757508373ffffffffffffffffffffffffffffffffffffffff1661215f84610ad6565b73ffffffffffffffffffffffffffffffffffffffff16145b91505092915050565b6121918161218c611d03565b612897565b50565b61219e8282611695565b61226b576001600a5f8481526020019081526020015f205f015f8373ffffffffffffffffffffffffffffffffffffffff1673ffffffffffffffffffffffffffffffffffffffff1681526020019081526020015f205f6101000a81548160ff021916908315150217905550612210611d03565b73ffffffffffffffffffffffffffffffffffffffff168173ffffffffffffffffffffffffffffffffffffffff16837f2f8788117e7eff1d82e926ec794901d17c78024a50270940304540a733656f0d60405160405180910390a45b5050565b612288828260405180602001604052805f81525061291b565b5050565b6122968282611695565b15612363575f600a5f8481526020019081526020015f205f015f8373ffffffffffffffffffffffffffffffffffffffff1673ffffffffffffffffffffffffffffffffffffffff1681526020019081526020015f205f6101000a81548160ff021916908315150217905550612308611d03565b73ffffffffffffffffffffffffffffffffffffffff168173ffffffffffffffffffffffffffffffffffffffff16837ff6391f5c32d9c69d2a47ea670b442974b53935d1edc7fd64eb21e047a839171b60405160405180910390a45b5050565b5f60025f8381526020019081526020015f205f9054906101000a900473ffffffffffffffffffffffffffffffffffffffff169050919050565b8173ffffffffffffffffffffffffffffffffffffffff168373ffffffffffffffffffffffffffffffffffffffff160361240e576040517f08c379a000000000000000000000000000000000000000000000000000000000815260040161240590614c10565b60405180910390fd5b8060055f8573ffffffffffffffffffffffffffffffffffffffff1673ffffffffffffffffffffffffffffffffffffffff1681526020019081526020015f205f8473ffffffffffffffffffffffffffffffffffffffff1673ffffffffffffffffffffffffffffffffffffffff1681526020019081526020015f205f6101000a81548160ff0219169083151502179055508173ffffffffffffffffffffffffffffffffffffffff168373ffffffffffffffffffffffffffffffffffffffff167f17307eab39ab6107e8899845ad3d59bd9653f200f220920489ca2b5937696c31836040516124fa91906135ac565b60405180910390a3505050565b612512848484611e00565b61251e84848484612975565b61255d576040517f08c379a000000000000000000000000000000000000000000000000000000000815260040161255490614c9e565b60405180910390fd5b50505050565b6060600d805461257290613e57565b80601f016020809104026020016040519081016040528092919081815260200182805461259e90613e57565b80156125e95780601f106125c0576101008083540402835291602001916125e9565b820191905f5260205f20905b8154815290600101906020018083116125cc57829003601f168201915b5050505050905090565b60605f600161260184612af7565b0190505f8167ffffffffffffffff81111561261f5761261e61390f565b5b6040519080825280601f01601f1916602001820160405280156126515781602001600182028036833780820191505090505b5090505f82602001820190505b6001156126b2578080600190039150507f3031323334353637383961626364656600000000000000000000000000000000600a86061a8153600a85816126a7576126a6614cbc565b5b0494505f850361265e575b819350505050919050565b5f7f780e9d63000000000000000000000000000000000000000000000000000000007bffffffffffffffffffffffffffffffffffffffffffffffffffffffff1916827bffffffffffffffffffffffffffffffffffffffffffffffffffffffff1916148061272f575061272e82612c48565b5b9050919050565b61274284848484612d29565b6001811115612786576040517f08c379a000000000000000000000000000000000000000000000000000000000815260040161277d90614d59565b60405180910390fd5b5f8290505f73ffffffffffffffffffffffffffffffffffffffff168573ffffffffffffffffffffffffffffffffffffffff16036127cb576127c681612d2f565b61280a565b8373ffffffffffffffffffffffffffffffffffffffff168573ffffffffffffffffffffffffffffffffffffffff1614612809576128088582612d73565b5b5b5f73ffffffffffffffffffffffffffffffffffffffff168473ffffffffffffffffffffffffffffffffffffffff160361284b5761284681612ec9565b61288a565b8473ffffffffffffffffffffffffffffffffffffffff168473ffffffffffffffffffffffffffffffffffffffff1614612889576128888482612f89565b5b5b5050505050565b50505050565b6128a18282611695565b612917576128ae81613001565b6128bb835f1c602061302e565b6040516020016128cc929190614e0b565b6040516020818303038152906040526040517f08c379a000000000000000000000000000000000000000000000000000000000815260040161290e919061364f565b60405180910390fd5b5050565b6129258383613263565b6129315f848484612975565b612970576040517f08c379a000000000000000000000000000000000000000000000000000000000815260040161296790614c9e565b60405180910390fd5b505050565b5f6129958473ffffffffffffffffffffffffffffffffffffffff16613476565b15612aea578373ffffffffffffffffffffffffffffffffffffffff1663150b7a026129be611d03565b8786866040518563ffffffff1660e01b81526004016129e09493929190614e96565b6020604051808303815f875af1925050508015612a1b57506040513d601f19601f82011682018060405250810190612a189190614ef4565b60015b612a9a573d805f8114612a49576040519150601f19603f3d011682016040523d82523d5f602084013e612a4e565b606091505b505f815103612a92576040517f08c379a0000000000000000000000000000000000000000000000000000000008152600401612a8990614c9e565b60405180910390fd5b805181602001fd5b63150b7a0260e01b7bffffffffffffffffffffffffffffffffffffffffffffffffffffffff1916817bffffffffffffffffffffffffffffffffffffffffffffffffffffffff191614915050612aef565b600190505b949350505050565b5f805f90507a184f03e93ff9f4daa797ed6e38ed64bf6a1f0100000000000000008310612b53577a184f03e93ff9f4daa797ed6e38ed64bf6a1f0100000000000000008381612b4957612b48614cbc565b5b0492506040810190505b6d04ee2d6d415b85acef81000000008310612b90576d04ee2d6d415b85acef81000000008381612b8657612b85614cbc565b5b0492506020810190505b662386f26fc100008310612bbf57662386f26fc100008381612bb557612bb4614cbc565b5b0492506010810190505b6305f5e1008310612be8576305f5e1008381612bde57612bdd614cbc565b5b0492506008810190505b6127108310612c0d576127108381612c0357612c02614cbc565b5b0492506004810190505b60648310612c305760648381612c2657612c25614cbc565b5b0492506002810190505b600a8310612c3f576001810190505b80915050919050565b5f7f80ac58cd000000000000000000000000000000000000000000000000000000007bffffffffffffffffffffffffffffffffffffffffffffffffffffffff1916827bffffffffffffffffffffffffffffffffffffffffffffffffffffffff19161480612d1257507f5b5e139f000000000000000000000000000000000000000000000000000000007bffffffffffffffffffffffffffffffffffffffffffffffffffffffff1916827bffffffffffffffffffffffffffffffffffffffffffffffffffffffff1916145b80612d225750612d2182613498565b5b9050919050565b50505050565b60088054905060095f8381526020019081526020015f2081905550600881908060018154018082558091505060019003905f5260205f20015f909190919091505550565b5f6001612d7f846115bd565b612d899190614f1f565b90505f60075f8481526020019081526020015f20549050818114612e60575f60065f8673ffffffffffffffffffffffffffffffffffffffff1673ffffffffffffffffffffffffffffffffffffffff1681526020019081526020015f205f8481526020019081526020015f205490508060065f8773ffffffffffffffffffffffffffffffffffffffff1673ffffffffffffffffffffffffffffffffffffffff1681526020019081526020015f205f8481526020019081526020015f20819055508160075f8381526020019081526020015f2081905550505b60075f8481526020019081526020015f205f905560065f8573ffffffffffffffffffffffffffffffffffffffff1673ffffffffffffffffffffffffffffffffffffffff1681526020019081526020015f205f8381526020019081526020015f205f905550505050565b5f6001600880549050612edc9190614f1f565b90505f60095f8481526020019081526020015f205490505f60088381548110612f0857612f0761410a565b5b905f5260205f20015490508060088381548110612f2857612f2761410a565b5b905f5260205f2001819055508160095f8381526020019081526020015f208190555060095f8581526020019081526020015f205f90556008805480612f7057612f6f614f52565b5b600190038181905f5260205f20015f9055905550505050565b5f612f93836115bd565b90508160065f8573ffffffffffffffffffffffffffffffffffffffff1673ffffffffffffffffffffffffffffffffffffffff1681526020019081526020015f205f8381526020019081526020015f20819055508060075f8481526020019081526020015f2081905550505050565b60606130278273ffffffffffffffffffffffffffffffffffffffff16601460ff1661302e565b9050919050565b60605f60028360026130409190614f7f565b61304a9190614fc0565b67ffffffffffffffff8111156130635761306261390f565b5b6040519080825280601f01601f1916602001820160405280156130955781602001600182028036833780820191505090505b5090507f3000000000000000000000000000000000000000000000000000000000000000815f815181106130cc576130cb61410a565b5b60200101907effffffffffffffffffffffffffffffffffffffffffffffffffffffffffffff191690815f1a9053507f78000000000000000000000000000000000000000000000000000000000000008160018151811061312f5761312e61410a565b5b60200101907effffffffffffffffffffffffffffffffffffffffffffffffffffffffffffff191690815f1a9053505f600184600261316d9190614f7f565b6131779190614fc0565b90505b6001811115613216577f3031323334353637383961626364656600000000000000000000000000000000600f8616601081106131b9576131b861410a565b5b1a60f81b8282815181106131d0576131cf61410a565b5b60200101907effffffffffffffffffffffffffffffffffffffffffffffffffffffffffffff191690815f1a905350600485901c94508061320f90614ff3565b905061317a565b505f8414613259576040517f08c379a000000000000000000000000000000000000000000000000000000000815260040161325090615064565b60405180910390fd5b8091505092915050565b5f73ffffffffffffffffffffffffffffffffffffffff168273ffffffffffffffffffffffffffffffffffffffff16036132d1576040517f08c379a00000000000000000000000000000000000000000000000000000000081526004016132c8906150cc565b60405180910390fd5b6132da81611dc0565b1561331a576040517f08c379a000000000000000000000000000000000000000000000000000000000815260040161331190615134565b60405180910390fd5b6133275f83836001612736565b61333081611dc0565b15613370576040517f08c379a000000000000000000000000000000000000000000000000000000000815260040161336790615134565b60405180910390fd5b600160035f8473ffffffffffffffffffffffffffffffffffffffff1673ffffffffffffffffffffffffffffffffffffffff1681526020019081526020015f205f82825401925050819055508160025f8381526020019081526020015f205f6101000a81548173ffffffffffffffffffffffffffffffffffffffff021916908373ffffffffffffffffffffffffffffffffffffffff160217905550808273ffffffffffffffffffffffffffffffffffffffff165f73ffffffffffffffffffffffffffffffffffffffff167fddf252ad1be2c89b69c2b068fc378daa952ba7f163c4a11628f55a4df523b3ef60405160405180910390a46134725f83836001612891565b5050565b5f808273ffffffffffffffffffffffffffffffffffffffff163b119050919050565b5f7f01ffc9a7000000000000000000000000000000000000000000000000000000007bffffffffffffffffffffffffffffffffffffffffffffffffffffffff1916827bffffffffffffffffffffffffffffffffffffffffffffffffffffffff1916149050919050565b5f604051905090565b5f80fd5b5f80fd5b5f7fffffffff0000000000000000000000000000000000000000000000000000000082169050919050565b61354681613512565b8114613550575f80fd5b50565b5f813590506135618161353d565b92915050565b5f6020828403121561357c5761357b61350a565b5b5f61358984828501613553565b91505092915050565b5f8115159050919050565b6135a681613592565b82525050565b5f6020820190506135bf5f83018461359d565b92915050565b5f81519050919050565b5f82825260208201905092915050565b5f5b838110156135fc5780820151818401526020810190506135e1565b5f8484015250505050565b5f601f19601f8301169050919050565b5f613621826135c5565b61362b81856135cf565b935061363b8185602086016135df565b61364481613607565b840191505092915050565b5f6020820190508181035f8301526136678184613617565b905092915050565b5f819050919050565b6136818161366f565b811461368b575f80fd5b50565b5f8135905061369c81613678565b92915050565b5f602082840312156136b7576136b661350a565b5b5f6136c48482850161368e565b91505092915050565b5f73ffffffffffffffffffffffffffffffffffffffff82169050919050565b5f6136f6826136cd565b9050919050565b613706816136ec565b82525050565b5f60208201905061371f5f8301846136fd565b92915050565b61372e816136ec565b8114613738575f80fd5b50565b5f8135905061374981613725565b92915050565b5f80604083850312156137655761376461350a565b5b5f6137728582860161373b565b92505060206137838582860161368e565b9150509250929050565b6137968161366f565b82525050565b5f6020820190506137af5f83018461378d565b92915050565b5f80604083850312156137cb576137ca61350a565b5b5f6137d88582860161368e565b92505060206137e98582860161368e565b9150509250929050565b5f805f6060848603121561380a5761380961350a565b5b5f6138178682870161373b565b93505060206138288682870161373b565b92505060406138398682870161368e565b9150509250925092565b5f819050919050565b61385581613843565b811461385f575f80fd5b50565b5f813590506138708161384c565b92915050565b5f6020828403121561388b5761388a61350a565b5b5f61389884828501613862565b91505092915050565b6138aa81613843565b82525050565b5f6020820190506138c35f8301846138a1565b92915050565b5f80604083850312156138df576138de61350a565b5b5f6138ec85828601613862565b92505060206138fd8582860161373b565b9150509250929050565b5f80fd5b5f80fd5b7f4e487b71000000000000000000000000000000000000000000000000000000005f52604160045260245ffd5b61394582613607565b810181811067ffffffffffffffff821117156139645761396361390f565b5b80604052505050565b5f613976613501565b9050613982828261393c565b919050565b5f67ffffffffffffffff8211156139a1576139a061390f565b5b6139aa82613607565b9050602081019050919050565b828183375f83830152505050565b5f6139d76139d284613987565b61396d565b9050828152602081018484840111156139f3576139f261390b565b5b6139fe8482856139b7565b509392505050565b5f82601f830112613a1a57613a19613907565b5b8135613a2a8482602086016139c5565b91505092915050565b5f805f805f60a08688031215613a4c57613a4b61350a565b5b5f613a598882890161373b565b955050602086013567ffffffffffffffff811115613a7a57613a7961350e565b5b613a8688828901613a06565b9450506040613a978882890161368e565b9350506060613aa88882890161368e565b9250506080613ab98882890161368e565b9150509295509295909350565b5f60208284031215613adb57613ada61350a565b5b5f82013567ffffffffffffffff811115613af857613af761350e565b5b613b0484828501613a06565b91505092915050565b5f805f60608486031215613b2457613b2361350a565b5b5f613b318682870161368e565b9350506020613b428682870161368e565b9250506040613b538682870161368e565b9150509250925092565b5f60208284031215613b7257613b7161350a565b5b5f613b7f8482850161373b565b91505092915050565b613b9181613592565b8114613b9b575f80fd5b50565b5f81359050613bac81613b88565b92915050565b5f8060408385031215613bc857613bc761350a565b5b5f613bd58582860161373b565b9250506020613be685828601613b9e565b9150509250929050565b5f606082019050613c035f83018661378d565b613c10602083018561378d565b613c1d604083018461378d565b949350505050565b5f6fffffffffffffffffffffffffffffffff82169050919050565b613c4981613c25565b82525050565b5f602082019050613c625f830184613c40565b92915050565b5f67ffffffffffffffff821115613c8257613c8161390f565b5b613c8b82613607565b9050602081019050919050565b5f613caa613ca584613c68565b61396d565b905082815260208101848484011115613cc657613cc561390b565b5b613cd18482856139b7565b509392505050565b5f82601f830112613ced57613cec613907565b5b8135613cfd848260208601613c98565b91505092915050565b5f805f8060808587031215613d1e57613d1d61350a565b5b5f613d2b8782880161373b565b9450506020613d3c8782880161373b565b9350506040613d4d8782880161368e565b925050606085013567ffffffffffffffff811115613d6e57613d6d61350e565b5b613d7a87828801613cd9565b91505092959194509250565b5f60c0820190508181035f830152613d9e8189613617565b9050613dad602083018861378d565b613dba604083018761378d565b613dc7606083018661378d565b613dd4608083018561378d565b613de160a083018461359d565b979650505050505050565b5f8060408385031215613e0257613e0161350a565b5b5f613e0f8582860161373b565b9250506020613e208582860161373b565b9150509250929050565b7f4e487b71000000000000000000000000000000000000000000000000000000005f52602260045260245ffd5b5f6002820490506001821680613e6e57607f821691505b602082108103613e8157613e80613e2a565b5b50919050565b7f496e73756666696369656e742066756e647320696e20746865207661756c74005f82015250565b5f613ebb601f836135cf565b9150613ec682613e87565b602082019050919050565b5f6020820190508181035f830152613ee881613eaf565b9050919050565b7f4e487b71000000000000000000000000000000000000000000000000000000005f52601160045260245ffd5b5f613f2682613c25565b9150613f3183613c25565b925082820390506fffffffffffffffffffffffffffffffff811115613f5957613f58613eef565b5b92915050565b5f604082019050613f725f8301856136fd565b613f7f602083018461378d565b9392505050565b7f4552433732313a20617070726f76616c20746f2063757272656e74206f776e655f8201527f7200000000000000000000000000000000000000000000000000000000000000602082015250565b5f613fe06021836135cf565b9150613feb82613f86565b604082019050919050565b5f6020820190508181035f83015261400d81613fd4565b9050919050565b7f4552433732313a20617070726f76652063616c6c6572206973206e6f7420746f5f8201527f6b656e206f776e6572206f7220617070726f76656420666f7220616c6c000000602082015250565b5f61406e603d836135cf565b915061407982614014565b604082019050919050565b5f6020820190508181035f83015261409b81614062565b9050919050565b7f546f6b656e20494420646f6573206e6f742065786973740000000000000000005f82015250565b5f6140d66017836135cf565b91506140e1826140a2565b602082019050919050565b5f6020820190508181035f830152614103816140ca565b9050919050565b7f4e487b71000000000000000000000000000000000000000000000000000000005f52603260045260245ffd5b7f4e4654206973206e6f74206c697374656420666f722073616c650000000000005f82015250565b5f61416b601a836135cf565b915061417682614137565b602082019050919050565b5f6020820190508181035f8301526141988161415f565b9050919050565b7f496e73756666696369656e74207061796d656e740000000000000000000000005f82015250565b5f6141d36014836135cf565b91506141de8261419f565b602082019050919050565b5f6020820190508181035f830152614200816141c7565b9050919050565b5f60608201905061421a5f8301866136fd565b61422760208301856136fd565b614234604083018461378d565b949350505050565b5f60608201905061424f5f8301866136fd565b61425c602083018561378d565b614269604083018461378d565b949350505050565b7f4552433732313a2063616c6c6572206973206e6f7420746f6b656e206f776e655f8201527f72206f7220617070726f76656400000000000000000000000000000000000000602082015250565b5f6142cb602d836135cf565b91506142d682614271565b604082019050919050565b5f6020820190508181035f8301526142f8816142bf565b9050919050565b7f455243373231456e756d657261626c653a206f776e657220696e646578206f755f8201527f74206f6620626f756e6473000000000000000000000000000000000000000000602082015250565b5f614359602b836135cf565b9150614364826142ff565b604082019050919050565b5f6020820190508181035f8301526143868161434d565b9050919050565b7f4f6e6c792070726f6475636572732063616e2063616c6c20746869732066756e5f8201527f6374696f6e000000000000000000000000000000000000000000000000000000602082015250565b5f6143e76025836135cf565b91506143f28261438d565b604082019050919050565b5f6020820190508181035f830152614414816143db565b9050919050565b5f819050815f5260205f209050919050565b5f6020601f8301049050919050565b5f82821b905092915050565b5f600883026144777fffffffffffffffffffffffffffffffffffffffffffffffffffffffffffffffff8261443c565b614481868361443c565b95508019841693508086168417925050509392505050565b5f819050919050565b5f6144bc6144b76144b28461366f565b614499565b61366f565b9050919050565b5f819050919050565b6144d5836144a2565b6144e96144e1826144c3565b848454614448565b825550505050565b5f90565b6144fd6144f1565b6145088184846144cc565b505050565b5b8181101561452b576145205f826144f5565b60018101905061450e565b5050565b601f821115614570576145418161441b565b61454a8461442d565b81016020851015614559578190505b61456d6145658561442d565b83018261450d565b50505b505050565b5f82821c905092915050565b5f6145905f1984600802614575565b1980831691505092915050565b5f6145a88383614581565b9150826002028217905092915050565b6145c1826135c5565b67ffffffffffffffff8111156145da576145d961390f565b5b6145e48254613e57565b6145ef82828561452f565b5f60209050601f831160018114614620575f841561460e578287015190505b614618858261459d565b86555061467f565b601f19841661462e8661441b565b5f5b8281101561465557848901518255600182019150602085019450602081019050614630565b86831015614672578489015161466e601f891682614581565b8355505b6001600288020188555050505b505050505050565b5f6040820190508181035f83015261469f8185613617565b90506146ae602083018461378d565b9392505050565b7f416363657373436f6e74726f6c3a2063616e206f6e6c792072656e6f756e63655f8201527f20726f6c657320666f722073656c660000000000000000000000000000000000602082015250565b5f61470f602f836135cf565b915061471a826146b5565b604082019050919050565b5f6020820190508181035f83015261473c81614703565b9050919050565b5f61474d82613c25565b915061475883613c25565b925082820190506fffffffffffffffffffffffffffffffff8111156147805761477f613eef565b5b92915050565b7f455243373231456e756d657261626c653a20676c6f62616c20696e646578206f5f8201527f7574206f6620626f756e64730000000000000000000000000000000000000000602082015250565b5f6147e0602c836135cf565b91506147eb82614786565b604082019050919050565b5f6020820190508181035f83015261480d816147d4565b9050919050565b7f4f6e6c792061646d696e732063616e2063616c6c20746869732066756e6374695f8201527f6f6e000000000000000000000000000000000000000000000000000000000000602082015250565b5f61486e6022836135cf565b915061487982614814565b604082019050919050565b5f6020820190508181035f83015261489b81614862565b9050919050565b7f4552433732313a20696e76616c696420746f6b656e20494400000000000000005f82015250565b5f6148d66018836135cf565b91506148e1826148a2565b602082019050919050565b5f6020820190508181035f830152614903816148ca565b9050919050565b5f60408201905061491d5f83018561378d565b61492a602083018461378d565b9392505050565b7f4552433732313a2061646472657373207a65726f206973206e6f7420612076615f8201527f6c6964206f776e65720000000000000000000000000000000000000000000000602082015250565b5f61498b6029836135cf565b915061499682614931565b604082019050919050565b5f6020820190508181035f8301526149b88161497f565b9050919050565b7f4f6e6c7920746865206f776e65722063616e206c69737420746865204e4654205f8201527f666f722073616c65000000000000000000000000000000000000000000000000602082015250565b5f614a196028836135cf565b9150614a24826149bf565b604082019050919050565b5f6020820190508181035f830152614a4681614a0d565b9050919050565b5f81905092915050565b5f614a61826135c5565b614a6b8185614a4d565b9350614a7b8185602086016135df565b80840191505092915050565b5f614a928285614a57565b9150614a9e8284614a57565b91508190509392505050565b7f4552433732313a207472616e736665722066726f6d20696e636f7272656374205f8201527f6f776e6572000000000000000000000000000000000000000000000000000000602082015250565b5f614b046025836135cf565b9150614b0f82614aaa565b604082019050919050565b5f6020820190508181035f830152614b3181614af8565b9050919050565b7f4552433732313a207472616e7366657220746f20746865207a65726f206164645f8201527f7265737300000000000000000000000000000000000000000000000000000000602082015250565b5f614b926024836135cf565b9150614b9d82614b38565b604082019050919050565b5f6020820190508181035f830152614bbf81614b86565b9050919050565b7f4552433732313a20617070726f766520746f2063616c6c6572000000000000005f82015250565b5f614bfa6019836135cf565b9150614c0582614bc6565b602082019050919050565b5f6020820190508181035f830152614c2781614bee565b9050919050565b7f4552433732313a207472616e7366657220746f206e6f6e2045524337323152655f8201527f63656976657220696d706c656d656e7465720000000000000000000000000000602082015250565b5f614c886032836135cf565b9150614c9382614c2e565b604082019050919050565b5f6020820190508181035f830152614cb581614c7c565b9050919050565b7f4e487b71000000000000000000000000000000000000000000000000000000005f52601260045260245ffd5b7f455243373231456e756d657261626c653a20636f6e73656375746976652074725f8201527f616e7366657273206e6f7420737570706f727465640000000000000000000000602082015250565b5f614d436035836135cf565b9150614d4e82614ce9565b604082019050919050565b5f6020820190508181035f830152614d7081614d37565b9050919050565b7f416363657373436f6e74726f6c3a206163636f756e74200000000000000000005f82015250565b5f614dab601783614a4d565b9150614db682614d77565b601782019050919050565b7f206973206d697373696e6720726f6c65200000000000000000000000000000005f82015250565b5f614df5601183614a4d565b9150614e0082614dc1565b601182019050919050565b5f614e1582614d9f565b9150614e218285614a57565b9150614e2c82614de9565b9150614e388284614a57565b91508190509392505050565b5f81519050919050565b5f82825260208201905092915050565b5f614e6882614e44565b614e728185614e4e565b9350614e828185602086016135df565b614e8b81613607565b840191505092915050565b5f608082019050614ea95f8301876136fd565b614eb660208301866136fd565b614ec3604083018561378d565b8181036060830152614ed58184614e5e565b905095945050505050565b5f81519050614eee8161353d565b92915050565b5f60208284031215614f0957614f0861350a565b5b5f614f1684828501614ee0565b91505092915050565b5f614f298261366f565b9150614f348361366f565b9250828203905081811115614f4c57614f4b613eef565b5b92915050565b7f4e487b71000000000000000000000000000000000000000000000000000000005f52603160045260245ffd5b5f614f898261366f565b9150614f948361366f565b9250828202614fa28161366f565b91508282048414831517614fb957614fb8613eef565b5b5092915050565b5f614fca8261366f565b9150614fd58361366f565b9250828201905080821115614fed57614fec613eef565b5b92915050565b5f614ffd8261366f565b91505f820361500f5761500e613eef565b5b600182039050919050565b7f537472696e67733a20686578206c656e67746820696e73756666696369656e745f82015250565b5f61504e6020836135cf565b91506150598261501a565b602082019050919050565b5f6020820190508181035f83015261507b81615042565b9050919050565b7f4552433732313a206d696e7420746f20746865207a65726f20616464726573735f82015250565b5f6150b66020836135cf565b91506150c182615082565b602082019050919050565b5f6020820190508181035f8301526150e3816150aa565b9050919050565b7f4552433732313a20746f6b656e20616c7265616479206d696e746564000000005f82015250565b5f61511e601c836135cf565b9150615129826150ea565b602082019050919050565b5f6020820190508181035f83015261514b81615112565b905091905056fea2646970667358221220502cb370b1ee136851361bff7f8be56a2dc1d053ff1f24928acc701b4f903b0264736f6c63430008150033",
  "immutableReferences": {},
  "source": "// SPDX-License-Identifier: MIT\npragma solidity ^0.8.0;\n\nimport \"@openzeppelin/contracts/access/AccessControl.sol\";\nimport \"@openzeppelin/contracts/token/ERC721/extensions/ERC721Enumerable.sol\";\nimport \"@openzeppelin/contracts/utils/math/SafeMath.sol\";\n\ncontract BBearsVREMarketplace is ERC721Enumerable, AccessControl {\n    using SafeMath for uint256;\n\n    bytes32 public constant ADMIN_ROLE = keccak256(\"ADMIN_ROLE\");\n    bytes32 public constant PRODUCER_ROLE = keccak256(\"PRODUCER_ROLE\");\n\n    string private _name = \"BBearsVREMarketplace\";\n    string private _symbol = \"BBVRE\";\n    string private _baseTokenURI;\n\n    struct RenewableEnergyNFT {\n        string energyType;\n        uint256 productionDate;\n        uint256 carbonEmissions;\n        uint256 energyEfficiency;\n        uint256 price;\n        bool isListed;\n    }\n\n    RenewableEnergyNFT[] public renewableEnergyNFTs;\n\n    event NFTMinted(uint256 indexed tokenId, string energyType, uint256 productionDate);\n    event AIPredictionAdded(uint256 indexed tokenId, uint256 timestamp, uint256 predictionValue);\n    event TaxPaid(address payer, uint256 tokenId, uint256 amount);\n    event WithdrawnFromVault(address user, uint256 amount);\n    event NFTListed(uint256 indexed tokenId, uint256 price);\n    event NFTPurchased(uint256 indexed tokenId, address buyer, address seller, uint256 price);\n\n    struct AIPrediction {\n        uint256 tokenId;\n        uint256 timestamp;\n        uint256 predictionValue;\n    }\n\n    AIPrediction[] public aiPredictions;\n\n    mapping(address => uint128) public vaultBalances;\n\n    constructor(string memory baseURI) ERC721(_name, _symbol) {\n        _baseTokenURI = baseURI;\n        _setupRole(DEFAULT_ADMIN_ROLE, msg.sender);\n        _setupRole(ADMIN_ROLE, msg.sender);\n        _setupRole(PRODUCER_ROLE, msg.sender);\n    }\n\n    modifier onlyAdmin() {\n        require(hasRole(ADMIN_ROLE, msg.sender), \"Only admins can call this function\");\n        _;\n    }\n\n    modifier onlyProducer() {\n        require(hasRole(PRODUCER_ROLE, msg.sender), \"Only producers can call this function\");\n        _;\n    }\n\n    function mintNFT(\n        address to,\n        string memory energyType,\n        uint256 productionDate,\n        uint256 carbonEmissions,\n        uint256 energyEfficiency\n    ) external onlyProducer {\n        uint256 tokenId = renewableEnergyNFTs.length;\n        renewableEnergyNFTs.push(\n            RenewableEnergyNFT({\n                energyType: energyType,\n                productionDate: productionDate,\n                carbonEmissions: carbonEmissions,\n                energyEfficiency: energyEfficiency,\n                price: 0,\n                isListed: false\n            })\n        );\n        _safeMint(to, tokenId);\n        emit NFTMinted(tokenId, energyType, productionDate);\n    }\n\n    function addAIPrediction(uint256 tokenId, uint256 timestamp, uint256 predictionValue) external onlyAdmin {\n        require(_exists(tokenId), \"Token ID does not exist\");\n        aiPredictions.push(AIPrediction({ tokenId: tokenId, timestamp: timestamp, predictionValue: predictionValue }));\n        emit AIPredictionAdded(tokenId, timestamp, predictionValue);\n    }\n\n    function payTax(uint256 tokenId, uint256 amount) external {\n        require(_exists(tokenId), \"Token ID does not exist\");\n        address payer = msg.sender;\n        // Perform tax payment logic\n        emit TaxPaid(payer, tokenId, amount);\n    }\n\n    function depositToVault() external payable {\n        vaultBalances[msg.sender] += uint128(msg.value);\n    }\n\n    function withdrawFromVault(uint256 amount) external {\n        require(vaultBalances[msg.sender] >= amount, \"Insufficient funds in the vault\");\n        vaultBalances[msg.sender] -= uint128(amount);\n        payable(msg.sender).transfer(amount);\n        emit WithdrawnFromVault(msg.sender, amount);\n    }\n\n    function _baseURI() internal view virtual override returns (string memory) {\n        return _baseTokenURI;\n    }\n\n    function setBaseURI(string memory baseURI) external onlyAdmin {\n        _baseTokenURI = baseURI;\n    }\n\n    function listNFTForSale(uint256 tokenId, uint256 price) external onlyProducer {\n        require(_exists(tokenId), \"Token ID does not exist\");\n        require(ownerOf(tokenId) == msg.sender, \"Only the owner can list the NFT for sale\");\n        renewableEnergyNFTs[tokenId].isListed = true;\n        renewableEnergyNFTs[tokenId].price = price;\n        emit NFTListed(tokenId, price);\n    }\n\n    function purchaseNFT(uint256 tokenId) external payable {\n        require(_exists(tokenId), \"Token ID does not exist\");\n        require(renewableEnergyNFTs[tokenId].isListed, \"NFT is not listed for sale\");\n        require(msg.value >= renewableEnergyNFTs[tokenId].price, \"Insufficient payment\");\n\n        address seller = ownerOf(tokenId);\n        address buyer = msg.sender;\n        uint256 price = renewableEnergyNFTs[tokenId].price;\n\n        // Transfer ownership\n        _transfer(seller, buyer, tokenId);\n\n        // Update NFT status\n        renewableEnergyNFTs[tokenId].isListed = false;\n        renewableEnergyNFTs[tokenId].price = 0;\n\n        // Transfer payment to seller\n        payable(seller).transfer(price);\n\n        emit NFTPurchased(tokenId, buyer, seller, price);\n    }\n\n    function supportsInterface(bytes4 interfaceId) public view virtual override(ERC721Enumerable, AccessControl) returns (bool) {\n        return super.supportsInterface(interfaceId);\n    }\n}\n",
  "sourcePath": "/data/data/com.termux/files/home/BBearsVREMarketplace/contracts/BBearsVREMarketplace.sol",
  "compiler": {
    "name": "solc",
    "version": "0.8.21+commit.d9974bed.Emscripten.clang"
  },
  "schemaVersion": "3.4.15",
  "updatedAt": "2023-08-23T04:16:24.941Z",
  "devdoc": {
    "events": {
      "Approval(address,address,uint256)": {
        "details": "Emitted when `owner` enables `approved` to manage the `tokenId` token."
      },
      "ApprovalForAll(address,address,bool)": {
        "details": "Emitted when `owner` enables or disables (`approved`) `operator` to manage all of its assets."
      },
      "RoleAdminChanged(bytes32,bytes32,bytes32)": {
        "details": "Emitted when `newAdminRole` is set as ``role``'s admin role, replacing `previousAdminRole` `DEFAULT_ADMIN_ROLE` is the starting admin for all roles, despite {RoleAdminChanged} not being emitted signaling this. _Available since v3.1._"
      },
      "RoleGranted(bytes32,address,address)": {
        "details": "Emitted when `account` is granted `role`. `sender` is the account that originated the contract call, an admin role bearer except when using {AccessControl-_setupRole}."
      },
      "RoleRevoked(bytes32,address,address)": {
        "details": "Emitted when `account` is revoked `role`. `sender` is the account that originated the contract call:   - if using `revokeRole`, it is the admin role bearer   - if using `renounceRole`, it is the role bearer (i.e. `account`)"
      },
      "Transfer(address,address,uint256)": {
        "details": "Emitted when `tokenId` token is transferred from `from` to `to`."
      }
    },
    "kind": "dev",
    "methods": {
      "approve(address,uint256)": {
        "details": "See {IERC721-approve}."
      },
      "balanceOf(address)": {
        "details": "See {IERC721-balanceOf}."
      },
      "getApproved(uint256)": {
        "details": "See {IERC721-getApproved}."
      },
      "getRoleAdmin(bytes32)": {
        "details": "Returns the admin role that controls `role`. See {grantRole} and {revokeRole}. To change a role's admin, use {_setRoleAdmin}."
      },
      "grantRole(bytes32,address)": {
        "details": "Grants `role` to `account`. If `account` had not been already granted `role`, emits a {RoleGranted} event. Requirements: - the caller must have ``role``'s admin role. May emit a {RoleGranted} event."
      },
      "hasRole(bytes32,address)": {
        "details": "Returns `true` if `account` has been granted `role`."
      },
      "isApprovedForAll(address,address)": {
        "details": "See {IERC721-isApprovedForAll}."
      },
      "name()": {
        "details": "See {IERC721Metadata-name}."
      },
      "ownerOf(uint256)": {
        "details": "See {IERC721-ownerOf}."
      },
      "renounceRole(bytes32,address)": {
        "details": "Revokes `role` from the calling account. Roles are often managed via {grantRole} and {revokeRole}: this function's purpose is to provide a mechanism for accounts to lose their privileges if they are compromised (such as when a trusted device is misplaced). If the calling account had been revoked `role`, emits a {RoleRevoked} event. Requirements: - the caller must be `account`. May emit a {RoleRevoked} event."
      },
      "revokeRole(bytes32,address)": {
        "details": "Revokes `role` from `account`. If `account` had been granted `role`, emits a {RoleRevoked} event. Requirements: - the caller must have ``role``'s admin role. May emit a {RoleRevoked} event."
      },
      "safeTransferFrom(address,address,uint256)": {
        "details": "See {IERC721-safeTransferFrom}."
      },
      "safeTransferFrom(address,address,uint256,bytes)": {
        "details": "See {IERC721-safeTransferFrom}."
      },
      "setApprovalForAll(address,bool)": {
        "details": "See {IERC721-setApprovalForAll}."
      },
      "symbol()": {
        "details": "See {IERC721Metadata-symbol}."
      },
      "tokenByIndex(uint256)": {
        "details": "See {IERC721Enumerable-tokenByIndex}."
      },
      "tokenOfOwnerByIndex(address,uint256)": {
        "details": "See {IERC721Enumerable-tokenOfOwnerByIndex}."
      },
      "tokenURI(uint256)": {
        "details": "See {IERC721Metadata-tokenURI}."
      },
      "totalSupply()": {
        "details": "See {IERC721Enumerable-totalSupply}."
      },
      "transferFrom(address,address,uint256)": {
        "details": "See {IERC721-transferFrom}."
      }
    },
    "version": 1
  },
  "userdoc": {
    "kind": "user",
    "methods": {},
    "version": 1
  }
}